{"abi":[{"type":"constructor","inputs":[{"name":"_owner","type":"address","internalType":"address"},{"name":"_operator","type":"address","internalType":"address"},{"name":"_usdcRecipient","type":"address","internalType":"address"}],"stateMutability":"nonpayable"},{"type":"receive","stateMutability":"payable"},{"type":"function","name":"BASE_UNLOCK_BPS","inputs":[],"outputs":[{"name":"","type":"uint256","internalType":"uint256"}],"stateMutability":"view"},{"type":"function","name":"BPS_DENOMINATOR","inputs":[],"outputs":[{"name":"","type":"uint256","internalType":"uint256"}],"stateMutability":"view"},{"type":"function","name":"CIRCUIT_BREAKER_BPS","inputs":[],"outputs":[{"name":"","type":"uint256","internalType":"uint256"}],"stateMutability":"view"},{"type":"function","name":"DEAD_POOL_THRESHOLD","inputs":[],"outputs":[{"name":"","type":"uint256","internalType":"uint256"}],"stateMutability":"view"},{"type":"function","name":"OFFICIAL_POOL","inputs":[],"outputs":[{"name":"","type":"address","internalType":"contract IUniswapV3Pool"}],"stateMutability":"view"},{"type":"function","name":"OPERATOR_COOLDOWN","inputs":[],"outputs":[{"name":"","type":"uint256","internalType":"uint256"}],"stateMutability":"view"},{"type":"function","name":"OPERATOR_INACTIVITY_PERIOD","inputs":[],"outputs":[{"name":"","type":"uint256","internalType":"uint256"}],"stateMutability":"view"},{"type":"function","name":"PERMISSIONLESS_COOLDOWN","inputs":[],"outputs":[{"name":"","type":"uint256","internalType":"uint256"}],"stateMutability":"view"},{"type":"function","name":"PERMISSIONLESS_MAX_PCT","inputs":[],"outputs":[{"name":"","type":"uint256","internalType":"uint256"}],"stateMutability":"view"},{"type":"function","name":"PERMISSIONLESS_PER_ACTION_CAP","inputs":[],"outputs":[{"name":"","type":"uint256","internalType":"uint256"}],"stateMutability":"view"},{"type":"function","name":"PERMISSIONLESS_PER_DAY_CAP","inputs":[],"outputs":[{"name":"","type":"uint256","internalType":"uint256"}],"stateMutability":"view"},{"type":"function","name":"ROI_STEP_BPS","inputs":[],"outputs":[{"name":"","type":"uint256","internalType":"uint256"}],"stateMutability":"view"},{"type":"function","name":"ROI_THRESHOLD_BPS","inputs":[],"outputs":[{"name":"","type":"uint256","internalType":"uint256"}],"stateMutability":"view"},{"type":"function","name":"SLIPPAGE_BPS","inputs":[],"outputs":[{"name":"","type":"uint256","internalType":"uint256"}],"stateMutability":"view"},{"type":"function","name":"STAKING","inputs":[],"outputs":[{"name":"","type":"address","internalType":"contract IStaking"}],"stateMutability":"view"},{"type":"function","name":"TWAP_PERIOD","inputs":[],"outputs":[{"name":"","type":"uint256","internalType":"uint256"}],"stateMutability":"view"},{"type":"function","name":"UNIVERSAL_ROUTER","inputs":[],"outputs":[{"name":"","type":"address","internalType":"contract IUniversalRouter"}],"stateMutability":"view"},{"type":"function","name":"UNLOCK_STEP_BPS","inputs":[],"outputs":[{"name":"","type":"uint256","internalType":"uint256"}],"stateMutability":"view"},{"type":"function","name":"USD","inputs":[],"outputs":[{"name":"","type":"address","internalType":"contract IERC20"}],"stateMutability":"view"},{"type":"function","name":"USDC","inputs":[],"outputs":[{"name":"","type":"address","internalType":"contract IERC20"}],"stateMutability":"view"},{"type":"function","name":"V3_ROUTER","inputs":[],"outputs":[{"name":"","type":"address","internalType":"contract ISwapRouter02"}],"stateMutability":"view"},{"type":"function","name":"WETH","inputs":[],"outputs":[{"name":"","type":"address","internalType":"contract IWETH"}],"stateMutability":"view"},{"type":"function","name":"burn","inputs":[{"name":"amount","type":"uint256","internalType":"uint256"}],"outputs":[],"stateMutability":"nonpayable"},{"type":"function","name":"buyTokenWithETH","inputs":[{"name":"token","type":"address","internalType":"address"},{"name":"amountETH","type":"uint256","internalType":"uint256"},{"name":"path","type":"bytes","internalType":"bytes"}],"outputs":[],"stateMutability":"nonpayable"},{"type":"function","name":"buybackWithUSDC","inputs":[{"name":"amountIn","type":"uint256","internalType":"uint256"}],"outputs":[],"stateMutability":"nonpayable"},{"type":"function","name":"buybackWithWETH","inputs":[{"name":"amountIn","type":"uint256","internalType":"uint256"}],"outputs":[],"stateMutability":"nonpayable"},{"type":"function","name":"caps","inputs":[{"name":"","type":"uint8","internalType":"enum TreasuryManagerV2.ActionType"}],"outputs":[{"name":"perAction","type":"uint256","internalType":"uint256"},{"name":"perDay","type":"uint256","internalType":"uint256"}],"stateMutability":"view"},{"type":"function","name":"dailyUsage","inputs":[{"name":"","type":"uint8","internalType":"enum TreasuryManagerV2.ActionType"}],"outputs":[{"name":"amount","type":"uint256","internalType":"uint256"},{"name":"resetTime","type":"uint256","internalType":"uint256"}],"stateMutability":"view"},{"type":"function","name":"getCaps","inputs":[{"name":"action","type":"uint8","internalType":"enum TreasuryManagerV2.ActionType"}],"outputs":[{"name":"perAction","type":"uint256","internalType":"uint256"},{"name":"perDay","type":"uint256","internalType":"uint256"}],"stateMutability":"view"},{"type":"function","name":"getRemainingDailyBudget","inputs":[{"name":"action","type":"uint8","internalType":"enum TreasuryManagerV2.ActionType"}],"outputs":[{"name":"","type":"uint256","internalType":"uint256"}],"stateMutability":"view"},{"type":"function","name":"getTokenInfo","inputs":[{"name":"token","type":"address","internalType":"address"}],"outputs":[{"name":"totalCostWei","type":"uint256","internalType":"uint256"},{"name":"totalAmount","type":"uint256","internalType":"uint256"},{"name":"highestRoiBps","type":"uint256","internalType":"uint256"},{"name":"roiTierTimestamp","type":"uint256","internalType":"uint256"}],"stateMutability":"view"},{"type":"function","name":"getUnlockedAmount","inputs":[{"name":"token","type":"address","internalType":"address"}],"outputs":[{"name":"","type":"uint256","internalType":"uint256"}],"stateMutability":"view"},{"type":"function","name":"isPermissionlessAvailable","inputs":[{"name":"token","type":"address","internalType":"address"}],"outputs":[{"name":"available","type":"bool","internalType":"bool"},{"name":"reason","type":"string","internalType":"string"}],"stateMutability":"view"},{"type":"function","name":"lastOperatorAction","inputs":[{"name":"","type":"uint8","internalType":"enum TreasuryManagerV2.ActionType"}],"outputs":[{"name":"","type":"uint256","internalType":"uint256"}],"stateMutability":"view"},{"type":"function","name":"lastOperatorRebalance","inputs":[],"outputs":[{"name":"","type":"uint256","internalType":"uint256"}],"stateMutability":"view"},{"type":"function","name":"lastPermissionlessAction","inputs":[{"name":"","type":"address","internalType":"address"}],"outputs":[{"name":"","type":"uint256","internalType":"uint256"}],"stateMutability":"view"},{"type":"function","name":"lastPoolInteraction","inputs":[],"outputs":[{"name":"","type":"uint256","internalType":"uint256"}],"stateMutability":"view"},{"type":"function","name":"operator","inputs":[],"outputs":[{"name":"","type":"address","internalType":"address"}],"stateMutability":"view"},{"type":"function","name":"operatorSlippageBps","inputs":[],"outputs":[{"name":"","type":"uint256","internalType":"uint256"}],"stateMutability":"view"},{"type":"function","name":"owner","inputs":[],"outputs":[{"name":"","type":"address","internalType":"address"}],"stateMutability":"view"},{"type":"function","name":"permissionlessDailyUsage","inputs":[],"outputs":[{"name":"amount","type":"uint256","internalType":"uint256"},{"name":"resetTime","type":"uint256","internalType":"uint256"}],"stateMutability":"view"},{"type":"function","name":"permissionlessRebalance","inputs":[{"name":"token","type":"address","internalType":"address"},{"name":"amount","type":"uint256","internalType":"uint256"},{"name":"pathToWETH","type":"bytes","internalType":"bytes"},{"name":"pathToUSDC","type":"bytes","internalType":"bytes"}],"outputs":[],"stateMutability":"nonpayable"},{"type":"function","name":"rebalance","inputs":[{"name":"token","type":"address","internalType":"address"},{"name":"amount","type":"uint256","internalType":"uint256"},{"name":"pathToWETH","type":"bytes","internalType":"bytes"},{"name":"pathToUSDC","type":"bytes","internalType":"bytes"}],"outputs":[],"stateMutability":"nonpayable"},{"type":"function","name":"renounceOwnership","inputs":[],"outputs":[],"stateMutability":"nonpayable"},{"type":"function","name":"rescueDeadPoolToken","inputs":[{"name":"token","type":"address","internalType":"address"},{"name":"path","type":"bytes","internalType":"bytes"}],"outputs":[],"stateMutability":"nonpayable"},{"type":"function","name":"setOperator","inputs":[{"name":"_operator","type":"address","internalType":"address"}],"outputs":[],"stateMutability":"nonpayable"},{"type":"function","name":"setSlippage","inputs":[{"name":"bps","type":"uint256","internalType":"uint256"}],"outputs":[],"stateMutability":"nonpayable"},{"type":"function","name":"stake","inputs":[{"name":"amount","type":"uint256","internalType":"uint256"},{"name":"poolId","type":"uint256","internalType":"uint256"}],"outputs":[],"stateMutability":"nonpayable"},{"type":"function","name":"tokenInfo","inputs":[{"name":"","type":"address","internalType":"address"}],"outputs":[{"name":"totalCostWei","type":"uint256","internalType":"uint256"},{"name":"totalAmount","type":"uint256","internalType":"uint256"},{"name":"highestRoiBps","type":"uint256","internalType":"uint256"},{"name":"roiTierTimestamp","type":"uint256","internalType":"uint256"}],"stateMutability":"view"},{"type":"function","name":"transferOwnership","inputs":[{"name":"newOwner","type":"address","internalType":"address"}],"outputs":[],"stateMutability":"nonpayable"},{"type":"function","name":"unstake","inputs":[{"name":"poolId","type":"uint256","internalType":"uint256"}],"outputs":[],"stateMutability":"nonpayable"},{"type":"function","name":"updateCaps","inputs":[{"name":"action","type":"uint8","internalType":"enum TreasuryManagerV2.ActionType"},{"name":"perAction","type":"uint256","internalType":"uint256"},{"name":"perDay","type":"uint256","internalType":"uint256"}],"outputs":[],"stateMutability":"nonpayable"},{"type":"function","name":"usdcRecipient","inputs":[],"outputs":[{"name":"","type":"address","internalType":"address"}],"stateMutability":"view"},{"type":"event","name":"BurnExecuted","inputs":[{"name":"amount","type":"uint256","indexed":false,"internalType":"uint256"}],"anonymous":false},{"type":"event","name":"BuybackExecuted","inputs":[{"name":"token","type":"address","indexed":true,"internalType":"address"},{"name":"amountIn","type":"uint256","indexed":false,"internalType":"uint256"},{"name":"usdOut","type":"uint256","indexed":false,"internalType":"uint256"}],"anonymous":false},{"type":"event","name":"CapsUpdated","inputs":[{"name":"actionType","type":"uint8","indexed":true,"internalType":"enum TreasuryManagerV2.ActionType"},{"name":"perAction","type":"uint256","indexed":false,"internalType":"uint256"},{"name":"perDay","type":"uint256","indexed":false,"internalType":"uint256"}],"anonymous":false},{"type":"event","name":"DeadPoolTokenRescued","inputs":[{"name":"token","type":"address","indexed":true,"internalType":"address"},{"name":"amount","type":"uint256","indexed":false,"internalType":"uint256"},{"name":"wethReceived","type":"uint256","indexed":false,"internalType":"uint256"}],"anonymous":false},{"type":"event","name":"OperatorUpdated","inputs":[{"name":"newOperator","type":"address","indexed":true,"internalType":"address"}],"anonymous":false},{"type":"event","name":"OwnershipTransferred","inputs":[{"name":"previousOwner","type":"address","indexed":true,"internalType":"address"},{"name":"newOwner","type":"address","indexed":true,"internalType":"address"}],"anonymous":false},{"type":"event","name":"RebalanceExecuted","inputs":[{"name":"token","type":"address","indexed":true,"internalType":"address"},{"name":"amount","type":"uint256","indexed":false,"internalType":"uint256"},{"name":"wethPortion","type":"uint256","indexed":false,"internalType":"uint256"},{"name":"usdcPortion","type":"uint256","indexed":false,"internalType":"uint256"},{"name":"permissionless","type":"bool","indexed":false,"internalType":"bool"},{"name":"caller","type":"address","indexed":false,"internalType":"address"}],"anonymous":false},{"type":"event","name":"SlippageUpdated","inputs":[{"name":"newBps","type":"uint256","indexed":false,"internalType":"uint256"}],"anonymous":false},{"type":"event","name":"StakeExecuted","inputs":[{"name":"poolId","type":"uint256","indexed":false,"internalType":"uint256"},{"name":"amount","type":"uint256","indexed":false,"internalType":"uint256"}],"anonymous":false},{"type":"event","name":"TokenPurchased","inputs":[{"name":"token","type":"address","indexed":true,"internalType":"address"},{"name":"ethSpent","type":"uint256","indexed":false,"internalType":"uint256"},{"name":"tokensReceived","type":"uint256","indexed":false,"internalType":"uint256"}],"anonymous":false},{"type":"event","name":"UnstakeExecuted","inputs":[{"name":"poolId","type":"uint256","indexed":false,"internalType":"uint256"},{"name":"amount","type":"uint256","indexed":false,"internalType":"uint256"},{"name":"rewards","type":"uint256","indexed":false,"internalType":"uint256"}],"anonymous":false},{"type":"error","name":"CircuitBreakerTriggered","inputs":[]},{"type":"error","name":"CooldownNotElapsed","inputs":[]},{"type":"error","name":"ExceedsPerActionCap","inputs":[]},{"type":"error","name":"ExceedsPerDayCap","inputs":[]},{"type":"error","name":"ExceedsUnlockedAmount","inputs":[]},{"type":"error","name":"InsufficientBalance","inputs":[]},{"type":"error","name":"InsufficientROI","inputs":[]},{"type":"error","name":"InvalidPath","inputs":[]},{"type":"error","name":"OnlyOperator","inputs":[]},{"type":"error","name":"OperatorStillActive","inputs":[]},{"type":"error","name":"OwnableInvalidOwner","inputs":[{"name":"owner","type":"address","internalType":"address"}]},{"type":"error","name":"OwnableUnauthorizedAccount","inputs":[{"name":"account","type":"address","internalType":"address"}]},{"type":"error","name":"PoolNotDead","inputs":[]},{"type":"error","name":"ReentrancyGuardReentrantCall","inputs":[]},{"type":"error","name":"SafeERC20FailedOperation","inputs":[{"name":"token","type":"address","internalType":"address"}]},{"type":"error","name":"SlippageTooHigh","inputs":[]},{"type":"error","name":"UnlockNotReady","inputs":[]},{"type":"error","name":"ZeroAddress","inputs":[]},{"type":"error","name":"ZeroAmount","inputs":[]}],"bytecode":{"object":"0x608060405234801561000f575f80fd5b506040516147de3803806147de83398101604081905261002e91610392565b826001600160a01b03811661005c57604051631e4fbdf760e01b81525f600482015260240160405180910390fd5b61006581610328565b5060017f9b779b17422d0df92223018b32b4d1fa46e071723d6817e2486d003becc55f00556001600160a01b0382166100b15760405163d92e233d60e01b815260040160405180910390fd5b6001600160a01b0381166100d85760405163d92e233d60e01b815260040160405180910390fd5b600180546001600160a01b039384166001600160a01b03199182161782556003805493909416921691909117825561012c60029081556040805180820182526706f05b59d3b20000808252671bc16d674ec8000060208084018281525f808052600480845295517f17ef568e3e12ab5b9c7254a8d58478811de00f9e6eb34345acd53bf8fd09d3ec5590517f17ef568e3e12ab5b9c7254a8d58478811de00f9e6eb34345acd53bf8fd09d3ed55855180870187526377359400815264012a05f200818401908152988252858352517fabd6e7cb50984ff9c2f3e18a2660c3353dadf4e3291deeb275dae2cd1e44fe055596517fabd6e7cb50984ff9c2f3e18a2660c3353dadf4e3291deeb275dae2cd1e44fe0655845180860186526a52b7d2dcc80cd2e40000008082526b019d971e4fe8401e74000000828401818152988a5286845291517f91da3fd0782e51c6b3986e9e672fd566868e71f3dbc2d6c2cd6fbb3e361af2a75596517f91da3fd0782e51c6b3986e9e672fd566868e71f3dbc2d6c2cd6fbb3e361af2a8558551808701875296875286820190815297875283815294517f2e174c10e159ea99b867ce3205125c24a42d128804e4070ed6fcc8cc98166aa05595517f2e174c10e159ea99b867ce3205125c24a42d128804e4070ed6fcc8cc98166aa1558251808401909352825281830194855292839052919052517f1a1e6821cde7d0159c0d293177871e09677b4e42307c7db3ba94f8648a5a050f55517f1a1e6821cde7d0159c0d293177871e09677b4e42307c7db3ba94f8648a5a0510555042600c556103d2565b5f80546001600160a01b038381166001600160a01b0319831681178455604051919092169283917f8be0079c531659141344cd1fd0a4f28419497f9722a3daafe3b4186f6b6457e09190a35050565b80516001600160a01b038116811461038d575f80fd5b919050565b5f805f606084860312156103a4575f80fd5b6103ad84610377565b92506103bb60208501610377565b91506103c960408501610377565b90509250925092565b6143ff806103df5f395ff3fe608060405260043610610310575f3560e01c80638339649c116101a3578063bcf97864116100f2578063e7bcc7bf11610092578063ef2aae0b1161006d578063ef2aae0b14610940578063f0fa55a91461095a578063f2fde38b14610979578063f5dab71114610998575f80fd5b8063e7bcc7bf146108db578063e8dd7fc3146108fa578063eb24975314610921575f80fd5b8063c9781f50116100cd578063c9781f5014610867578063cb4926e21461087c578063cec2c7af1461089b578063e1a45218146108c6575f80fd5b8063bcf9786414610810578063c188d2bf14610826578063c59e093d14610851575f80fd5b806397610f301161015d578063ad5c464811610138578063ad5c4648146107a3578063b37cdaaf146107bd578063b3ab15fb146107dc578063bc808d89146107fb575f80fd5b806397610f3014610747578063a11198561461076e578063a9da64a71461078e575f80fd5b80638339649c1461067e57806389a302711461069d5780638ae2be67146106c45780638da5cb5b146106e3578063929388db146106ff57806397545efc14610715575f80fd5b8063420d4a021161025f5780636109700d11610219578063715018a6116101f4578063715018a61461062057806377f8bb6d146106345780637b0472f0146106495780637ca2518414610668575f80fd5b80636109700d146105bf5780636cdc2430146105ec5780636efafb8d14610601575f80fd5b8063420d4a021461052457806342966c68146105435780634eb400a8146104675780634f9cb45c14610562578063570ca73514610581578063609ebfb5146105a0575f80fd5b80631f69565f116102ca5780632e17de78116102a55780632e17de781461047c57806332e14d641461049b57806339d7e4b6146104e2578063404f559c146104fd575f80fd5b80631f69565f146103e8578063201cddf3146104525780632772d21914610467575f80fd5b806301395e371461031b57806306b8bcbe146103435780630787bde4146103645780630efd0bbb1461037f578063179a81b1146103945780631bf6c21b146103a9575f80fd5b3661031757005b5f80fd5b348015610326575f80fd5b50610330600b5481565b6040519081526020015b60405180910390f35b34801561034e575f80fd5b5061036261035d366004613bce565b6109d8565b005b34801561036f575f80fd5b50610330671bc16d674ec8000081565b34801561038a575f80fd5b506103306103e881565b34801561039f575f80fd5b5061033061384081565b3480156103b4575f80fd5b506103d073583866fb22a3d67d7c45e1d0f34bcb20bf9c635381565b6040516001600160a01b03909116815260200161033a565b3480156103f3575f80fd5b50610432610402366004613c1f565b6001600160a01b03165f908152600860205260409020805460018201546002830154600390930154919390929190565b60408051948552602085019390935291830152606082015260800161033a565b34801561045d575f80fd5b506103306109c481565b348015610472575f80fd5b506103306101f481565b348015610487575f80fd5b50610362610496366004613c3a565b610cd3565b3480156104a6575f80fd5b506104cd6104b5366004613c64565b60056020525f90815260409020805460019091015482565b6040805192835260208301919091520161033a565b3480156104ed575f80fd5b506103306706f05b59d3b2000081565b348015610508575f80fd5b506103d073ad501a478bf0f81c42c8c80ea08968f5aa4c2f9a81565b34801561052f575f80fd5b5061033061053e366004613c1f565b610f55565b34801561054e575f80fd5b5061036261055d366004613c3a565b610f7b565b34801561056d575f80fd5b5061036261057c366004613c7d565b6111e5565b34801561058c575f80fd5b506001546103d0906001600160a01b031681565b3480156105ab575f80fd5b506104cd6105ba366004613c64565b6115b2565b3480156105ca575f80fd5b506105de6105d9366004613c1f565b611612565b60405161033a929190613d36565b3480156105f7575f80fd5b506103306105dc81565b34801561060c575f80fd5b5061036261061b366004613c7d565b6117bd565b34801561062b575f80fd5b50610362611aae565b34801561063f575f80fd5b5061033061012c81565b348015610654575f80fd5b50610362610663366004613d58565b611ac1565b348015610673575f80fd5b506103306201518081565b348015610689575f80fd5b50610362610698366004613d78565b611daf565b3480156106a8575f80fd5b506103d073833589fcd6edb6e08f4c7c32d4f71b54bda0291381565b3480156106cf575f80fd5b506103626106de366004613c3a565b612178565b3480156106ee575f80fd5b505f546001600160a01b03166103d0565b34801561070a575f80fd5b50610330620186a081565b348015610720575f80fd5b506104cd61072f366004613c64565b60046020525f90815260409020805460019091015482565b348015610752575f80fd5b506103d0732a70a42bc0524abca9bff59a51e7aadb575dc89a81565b348015610779575f80fd5b506103d05f8051602061438a83398151915281565b348015610799575f80fd5b50610330610e1081565b3480156107ae575f80fd5b506103d06006602160991b0181565b3480156107c8575f80fd5b506103306107d7366004613c64565b6125ba565b3480156107e7575f80fd5b506103626107f6366004613c1f565b6126da565b348015610806575f80fd5b5061033060025481565b34801561081b575f80fd5b506103306276a70081565b348015610831575f80fd5b50610330610840366004613c1f565b60076020525f908152604090205481565b34801561085c575f80fd5b506103306212750081565b348015610872575f80fd5b50610330600c5481565b348015610887575f80fd5b50610362610896366004613dd0565b612752565b3480156108a6575f80fd5b506103306108b5366004613c64565b60066020525f908152604090205481565b3480156108d1575f80fd5b5061033061271081565b3480156108e6575f80fd5b506003546103d0906001600160a01b031681565b348015610905575f80fd5b506103d0736ff5693b99212da76ad316178a184ab56d299b4381565b34801561092c575f80fd5b5061036261093b366004613c3a565b61282b565b34801561094b575f80fd5b50600954600a546104cd919082565b348015610965575f80fd5b50610362610974366004613c3a565b612a94565b348015610984575f80fd5b50610362610993366004613c1f565b612b03565b3480156109a3575f80fd5b506104326109b2366004613c1f565b60086020525f908152604090208054600182015460028301546003909301549192909184565b6109e0612b42565b6109e8612b6e565b6276a700600c546109f99190613e14565b421015610a19576040516373a44d7b60e11b815260040160405180910390fd5b610a238282612b89565b6040516370a0823160e01b81523060048201525f906001600160a01b038516906370a0823190602401602060405180830381865afa158015610a67573d5f803e3d5ffd5b505050506040513d601f19601f82011682018060405250810190610a8b9190613e27565b9050805f03610aad57604051631e9acf1760e31b815260040160405180910390fd5b610ace6001600160a01b0385165f8051602061438a83398151915283612bdd565b6040516370a0823160e01b81523060048201525f906006602160991b01906370a0823190602401602060405180830381865afa158015610b10573d5f803e3d5ffd5b505050506040513d601f19601f82011682018060405250810190610b349190613e27565b6040805160a06020601f88018190040282018101909252608081018681529293505f8051602061438a8339815191529263b858183f9282919089908990819085018382808284375f9201829052509385525050306020840152506040808301889052606090920152516001600160e01b031960e084901b168152610bbb9190600401613e3e565b6020604051808303815f875af1158015610bd7573d5f803e3d5ffd5b505050506040513d601f19601f82011682018060405250810190610bfb9190613e27565b506040516370a0823160e01b81523060048201525f9082906006602160991b01906370a0823190602401602060405180830381865afa158015610c40573d5f803e3d5ffd5b505050506040513d601f19601f82011682018060405250810190610c649190613e27565b610c6e9190613e8b565b60408051858152602081018390529192506001600160a01b038816917f303d51992de2186bfa41b94f270be2e8f69004a21a2ca4c56e9404583e331a63910160405180910390a2505050610cce60015f805160206143aa83398151915255565b505050565b6001546001600160a01b03163314610cfe576040516327e1f1e560e01b815260040160405180910390fd5b610d06612b6e565b6040516370a0823160e01b81523060048201525f9073583866fb22a3d67d7c45e1d0f34bcb20bf9c6353906370a0823190602401602060405180830381865afa158015610d55573d5f803e3d5ffd5b505050506040513d601f19601f82011682018060405250810190610d799190613e27565b604051632e1a7d4d60e01b815260048101849052909150732a70a42bc0524abca9bff59a51e7aadb575dc89a90632e1a7d4d906024015f604051808303815f87803b158015610dc6575f80fd5b505af1158015610dd8573d5f803e3d5ffd5b50506040516370a0823160e01b81523060048201525f925073583866fb22a3d67d7c45e1d0f34bcb20bf9c635391506370a0823190602401602060405180830381865afa158015610e2b573d5f803e3d5ffd5b505050506040513d601f19601f82011682018060405250810190610e4f9190613e27565b90505f610e5c8383613e8b565b6040516393f1a40b60e01b8152600481018690523060248201529091505f90732a70a42bc0524abca9bff59a51e7aadb575dc89a906393f1a40b906044016040805180830381865afa158015610eb4573d5f803e3d5ffd5b505050506040513d601f19601f82011682018060405250810190610ed89190613e9e565b5090505f818311610ee9575f610ef3565b610ef38284613e8b565b60408051888152602081018690529081018290529091507f6b2ff7bcad167f8ee5b505578fdde3eaa33f4d79acffe7e709c0c8b38a0229d29060600160405180910390a15050505050610f5260015f805160206143aa83398151915255565b50565b6001600160a01b0381165f908152600860205260408120610f7590612c64565b92915050565b6001546001600160a01b03163314610fa6576040516327e1f1e560e01b815260040160405180910390fd5b610fae612b6e565b60025f81905260066020527f8819ef417987f8ae7a81f42cdfb18815282fe989326fbff903d13cf0e03ace2954610fe890610e1090613e14565b42101561100857604051635115ba2f60e11b815260040160405180910390fd5b4260065f83600481111561101e5761101e613ec0565b600481111561102f5761102f613ec0565b81526020019081526020015f20819055506002825f60045f84600481111561105957611059613ec0565b600481111561106a5761106a613ec0565b81526020019081526020015f206040518060400160405290815f82015481526020016001820154815250509050805f01518211156110bb5760405163bfe49a2b60e01b815260040160405180910390fd5b6110c58383612d38565b845f036110e557604051631f2a200560e01b815260040160405180910390fd5b6040516370a0823160e01b8152306004820152859073583866fb22a3d67d7c45e1d0f34bcb20bf9c6353906370a0823190602401602060405180830381865afa158015611134573d5f803e3d5ffd5b505050506040513d601f19601f820116820180604052508101906111589190613e27565b101561117757604051631e9acf1760e31b815260040160405180910390fd5b61119873583866fb22a3d67d7c45e1d0f34bcb20bf9c635361dead87612e11565b6040518581527f605c5b4f4308c1e42a024db1dc59389917ccc2058e83a1f6b672d8d60d12d7e19060200160405180910390a150505050610f5260015f805160206143aa83398151915255565b6111ed612b6e565b6001600160a01b0386166112145760405163d92e233d60e01b815260040160405180910390fd5b845f0361123457604051631f2a200560e01b815260040160405180910390fd5b6040516370a0823160e01b815230600482015285906001600160a01b038816906370a0823190602401602060405180830381865afa158015611278573d5f803e3d5ffd5b505050506040513d601f19601f8201168201806040525081019061129c9190613e27565b10156112bb57604051631e9acf1760e31b815260040160405180910390fd5b6001600160a01b0386165f908152600860205260408120906112dd8883612e46565b9050620186a08110156113035760405163d2ddb41d60e01b815260040160405180910390fd5b816002015481111561134157620186a08260020154108061132d575061132d818360020154612e6e565b15611339574260038301555b600282018190555b81600301545f03611364576040516297f2d960e21b815260040160405180910390fd5b6212750082600301546113779190613e14565b421015611396576040516297f2d960e21b815260040160405180910390fd5b8160030154600b5411156113bd57604051635fa0136560e01b815260040160405180910390fd5b5f6113c783612c64565b90505f6127106113d96101f484613ed4565b6113e39190613eff565b905080891115611406576040516351e1052960e11b815260040160405180910390fd5b6001600160a01b038a165f9081526007602052604090205461142b9061384090613e14565b42101561144b57604051635115ba2f60e11b815260040160405180910390fd5b6001600160a01b038a165f90815260076020526040812042905560018501541561148d5760018501548554611480908c613ed4565b61148a9190613eff565b90505b6706f05b59d3b200008111156114b65760405163bfe49a2b60e01b815260040160405180910390fd5b6114bf81612ebc565b6114c7612f2f565b6114d78b8b8b8b8b8b600161320a565b42600c5560018501548a106114ec575f6114fc565b8985600101546114fc9190613e8b565b60018601819055158015906115115750845481105b156115335780855f015f8282546115289190613e8b565b909155506115379050565b5f85555b604080518b81525f60208201819052818301526001606082015233608082015290516001600160a01b038d16917fbb867c885c6fe01338a2d4952678ce5ab3b5128b27a2012ef46c921bcf080553919081900360a00190a250505050506115aa60015f805160206143aa83398151915255565b505050505050565b5f805f60045f8560048111156115ca576115ca613ec0565b60048111156115db576115db613ec0565b815260208082019290925260409081015f208151808301909252805480835260019091015491909201819052909590945092505050565b6001600160a01b0381165f908152600860205260408120600281015460609190620186a0111561166f575f6040518060400160405280600f81526020016e524f492062656c6f7720313030302560881b8152509250925050915091565b80600301545f036116b2575f60405180604001604052806014815260200173139bc81493d2481d1a595c881c9958dbdc99195960621b8152509250925050915091565b6212750081600301546116c59190613e14565b4210156116f0575f604051806060016040528060218152602001614369602191399250925050915091565b8060030154600b541115611722575f604051806060016040528060268152602001614343602691399250925050915091565b6001600160a01b0384165f908152600760205260409020546117479061384090613e14565b42101561178f575f6040518060400160405280601781526020017f346820636f6f6c646f776e206e6f7420656c61707365640000000000000000008152509250925050915091565b600160405180604001604052806009815260200168417661696c61626c6560b81b8152509250925050915091565b6001546001600160a01b031633146117e8576040516327e1f1e560e01b815260040160405180910390fd5b6117f0612b6e565b60045f81905260066020527fc5069e24aaadb2addc3e52e868fcf3f4f8acf5a87e24300992fd4540c2a87eed5461182a90610e1090613e14565b42101561184a57604051635115ba2f60e11b815260040160405180910390fd5b4260065f83600481111561186057611860613ec0565b600481111561187157611871613ec0565b815260208101919091526040015f20556001600160a01b0387166118a85760405163d92e233d60e01b815260040160405180910390fd5b855f036118c857604051631f2a200560e01b815260040160405180910390fd5b6040516370a0823160e01b815230600482015286906001600160a01b038916906370a0823190602401602060405180830381865afa15801561190c573d5f803e3d5ffd5b505050506040513d601f19601f820116820180604052508101906119309190613e27565b101561194f57604051631e9acf1760e31b815260040160405180910390fd5b6001600160a01b0387165f9081526008602052604081206001810154909190156119915760018201548254611984908a613ed4565b61198e9190613eff565b90505b60045f8190526020908152604080518082019091527f1a1e6821cde7d0159c0d293177871e09677b4e42307c7db3ba94f8648a5a050f548082527f1a1e6821cde7d0159c0d293177871e09677b4e42307c7db3ba94f8648a5a0510549282019290925290821115611a155760405163bfe49a2b60e01b815260040160405180910390fd5b611a20600483612d38565b611a2f8a8a8a8a8a8a5f61320a565b42600b819055600c5560018301548910611a49575f611a59565b888360010154611a599190613e8b565b6001840181905515801590611a6e5750825482105b15611a905781835f015f828254611a859190613e8b565b90915550611a949050565b5f83555b505050506115aa60015f805160206143aa83398151915255565b611ab6612b42565b611abf5f613698565b565b6001546001600160a01b03163314611aec576040516327e1f1e560e01b815260040160405180910390fd5b611af4612b6e565b60035f81905260066020527f75f96ab15d697e93042dc45b5c896c4b27e89bb6eaf39475c5c371cb2513f7d254611b2e90610e1090613e14565b421015611b4e57604051635115ba2f60e11b815260040160405180910390fd5b4260065f836004811115611b6457611b64613ec0565b6004811115611b7557611b75613ec0565b81526020019081526020015f20819055506003835f60045f846004811115611b9f57611b9f613ec0565b6004811115611bb057611bb0613ec0565b81526020019081526020015f206040518060400160405290815f82015481526020016001820154815250509050805f0151821115611c015760405163bfe49a2b60e01b815260040160405180910390fd5b611c0b8383612d38565b855f03611c2b57604051631f2a200560e01b815260040160405180910390fd5b6040516370a0823160e01b8152306004820152869073583866fb22a3d67d7c45e1d0f34bcb20bf9c6353906370a0823190602401602060405180830381865afa158015611c7a573d5f803e3d5ffd5b505050506040513d601f19601f82011682018060405250810190611c9e9190613e27565b1015611cbd57604051631e9acf1760e31b815260040160405180910390fd5b611cf073583866fb22a3d67d7c45e1d0f34bcb20bf9c6353732a70a42bc0524abca9bff59a51e7aadb575dc89a88612bdd565b604051631c57762b60e31b81526004810186905260248101879052732a70a42bc0524abca9bff59a51e7aadb575dc89a9063e2bbb158906044015f604051808303815f87803b158015611d41575f80fd5b505af1158015611d53573d5f803e3d5ffd5b505060408051888152602081018a90527fc3f4bca079ed6045cda21ebf7f90bd3707cfa0b3a2e8fd57fba455797aa65b4e935001905060405180910390a150505050611dab60015f805160206143aa83398151915255565b5050565b6001546001600160a01b03163314611dda576040516327e1f1e560e01b815260040160405180910390fd5b611de2612b6e565b6001600160a01b038416611e095760405163d92e233d60e01b815260040160405180910390fd5b825f03611e2957604051631f2a200560e01b815260040160405180910390fd5b82471015611e4a57604051631e9acf1760e31b815260040160405180910390fd5b611e5482826136e7565b6006602160991b016001600160a01b031663d0e30db0846040518263ffffffff1660e01b81526004015f604051808303818588803b158015611e94575f80fd5b505af1158015611ea6573d5f803e3d5ffd5b505060405163095ea7b360e01b81525f8051602061438a8339815191526004820152602481018790526006602160991b01935063095ea7b3925060440190506020604051808303815f875af1158015611f01573d5f803e3d5ffd5b505050506040513d601f19601f82011682018060405250810190611f259190613f21565b506040516370a0823160e01b81523060048201525f906001600160a01b038616906370a0823190602401602060405180830381865afa158015611f6a573d5f803e3d5ffd5b505050506040513d601f19601f82011682018060405250810190611f8e9190613e27565b6040805160a06020601f87018190040282018101909252608081018581529293505f8051602061438a8339815191529263b858183f9282919088908890819085018382808284375f92018290525093855250503060208401525060408083018a9052606090920152516001600160e01b031960e084901b1681526120159190600401613e3e565b6020604051808303815f875af1158015612031573d5f803e3d5ffd5b505050506040513d601f19601f820116820180604052508101906120559190613e27565b506040516370a0823160e01b81523060048201525f9082906001600160a01b038816906370a0823190602401602060405180830381865afa15801561209c573d5f803e3d5ffd5b505050506040513d601f19601f820116820180604052508101906120c09190613e27565b6120ca9190613e8b565b6001600160a01b0387165f908152600860205260408120805492935091879183916120f6908490613e14565b9250508190555081816001015f8282546121109190613e14565b909155505060408051878152602081018490526001600160a01b038916917f3ceffd410054fdaed44f598ff5c1fb450658778e2241892da4aa646979dee617910160405180910390a250505061217260015f805160206143aa83398151915255565b50505050565b6001546001600160a01b031633146121a3576040516327e1f1e560e01b815260040160405180910390fd5b6121ab612b6e565b60015f81905260066020527f3e5fec24aa4dc4e5aee2e025e51e1392c72a2500577559fae9665c6d52bd6a31546121e590610e1090613e14565b42101561220557604051635115ba2f60e11b815260040160405180910390fd5b4260065f83600481111561221b5761221b613ec0565b600481111561222c5761222c613ec0565b81526020019081526020015f20819055506001825f60045f84600481111561225657612256613ec0565b600481111561226757612267613ec0565b81526020019081526020015f206040518060400160405290815f82015481526020016001820154815250509050805f01518211156122b85760405163bfe49a2b60e01b815260040160405180910390fd5b6122c28383612d38565b845f036122e257604051631f2a200560e01b815260040160405180910390fd5b6040516370a0823160e01b8152306004820152859073833589fcd6edb6e08f4c7c32d4f71b54bda02913906370a0823190602401602060405180830381865afa158015612331573d5f803e3d5ffd5b505050506040513d601f19601f820116820180604052508101906123559190613e27565b101561237457604051631e9acf1760e31b815260040160405180910390fd5b6123a073833589fcd6edb6e08f4c7c32d4f71b54bda029135f8051602061438a83398151915287612bdd565b6040516370a0823160e01b81523060048201525f906006602160991b01906370a0823190602401602060405180830381865afa1580156123e2573d5f803e3d5ffd5b505050506040513d601f19601f820116820180604052508101906124069190613e27565b6040805160e08101825273833589fcd6edb6e08f4c7c32d4f71b54bda0291381526006602160991b0160208201526101f481830152306060820152608081018990525f60a0820181905260c082015290516304e45aaf60e01b81529192505f8051602061438a833981519152916304e45aaf9161248591600401613f3a565b6020604051808303815f875af11580156124a1573d5f803e3d5ffd5b505050506040513d601f19601f820116820180604052508101906124c59190613e27565b506040516370a0823160e01b81523060048201525f9082906006602160991b01906370a0823190602401602060405180830381865afa15801561250a573d5f803e3d5ffd5b505050506040513d601f19601f8201168201806040525081019061252e9190613e27565b6125389190613e8b565b90505f61254782600254613735565b42600c55604080518a81526020810183905291925073833589fcd6edb6e08f4c7c32d4f71b54bda02913917fce6abc4aa99ab2d137d5f7e34bec0e883a186fd2d76b29f2e1c30afcc68d7336910160405180910390a250505050505050610f5260015f805160206143aa83398151915255565b5f8060055f8460048111156125d1576125d1613ec0565b60048111156125e2576125e2613ec0565b81526020019081526020015f2090508060010154620151806126049190613e14565b42106126495760045f84600481111561261f5761261f613ec0565b600481111561263057612630613ec0565b81526020019081526020015f2060010154915050919050565b60045f84600481111561265e5761265e613ec0565b600481111561266f5761266f613ec0565b81526020019081526020015f2060010154815f01541061269157505f92915050565b805460045f85828111156126a7576126a7613ec0565b60048111156126b8576126b8613ec0565b81526020019081526020015f20600101546126d39190613e8b565b9392505050565b6126e2612b42565b6001600160a01b0381166127095760405163d92e233d60e01b815260040160405180910390fd5b600180546001600160a01b0319166001600160a01b0383169081179091556040517fb3b3f5f64ab192e4b5fefde1f51ce9733bbdcf831951543b325aebd49cc27ec4905f90a250565b61275a612b42565b811580612765575080155b1561278357604051631f2a200560e01b815260040160405180910390fd5b60405180604001604052808381526020018281525060045f8560048111156127ad576127ad613ec0565b60048111156127be576127be613ec0565b81526020808201929092526040015f20825181559101516001909101558260048111156127ed576127ed613ec0565b60408051848152602081018490527f3602fd9158b598910ec2dc26a196f86ffe7cdbab782255fc4adfbf36636b4042910160405180910390a2505050565b6001546001600160a01b03163314612856576040516327e1f1e560e01b815260040160405180910390fd5b61285e612b6e565b5f80805260066020527f54cdd369e4e8a8515e52ca72ec816c2101831ad1f18bf44102ed171459c9b4f85461289690610e1090613e14565b4210156128b657604051635115ba2f60e11b815260040160405180910390fd5b4260065f8360048111156128cc576128cc613ec0565b60048111156128dd576128dd613ec0565b815260208082019290925260409081015f908120939093558280526004825280518082019091527f17ef568e3e12ab5b9c7254a8d58478811de00f9e6eb34345acd53bf8fd09d3ec548082527f17ef568e3e12ab5b9c7254a8d58478811de00f9e6eb34345acd53bf8fd09d3ed549282019290925284918211156129745760405163bfe49a2b60e01b815260040160405180910390fd5b61297e8383612d38565b845f0361299e57604051631f2a200560e01b815260040160405180910390fd5b6040516370a0823160e01b815230600482015285906006602160991b01906370a0823190602401602060405180830381865afa1580156129e0573d5f803e3d5ffd5b505050506040513d601f19601f82011682018060405250810190612a049190613e27565b1015612a2357604051631e9acf1760e31b815260040160405180910390fd5b5f612a3086600254613735565b42600c5560408051888152602081018390529192506006602160991b01917fce6abc4aa99ab2d137d5f7e34bec0e883a186fd2d76b29f2e1c30afcc68d7336910160405180910390a25050505050610f5260015f805160206143aa83398151915255565b612a9c612b42565b801580612aaa57506103e881115b15612ac85760405163428637bb60e11b815260040160405180910390fd5b60028190556040518181527ff5a802650e0a86db227cc342f06327d2ca0ff5cf2b12e0084fc5d8a7db2c54fd9060200160405180910390a150565b612b0b612b42565b6001600160a01b038116612b3957604051631e4fbdf760e01b81525f60048201526024015b60405180910390fd5b610f5281613698565b5f546001600160a01b03163314611abf5760405163118cdaa760e01b8152336004820152602401612b30565b612b766139e7565b60025f805160206143aa83398151915255565b6014811015612bab576040516320db826760e01b815260040160405180910390fd5b818101601319013560601c6006602160991b018114610cce576040516320db826760e01b815260040160405180910390fd5b604051636eb1769f60e11b81523060048201526001600160a01b0383811660248301525f919085169063dd62ed3e90604401602060405180830381865afa158015612c2a573d5f803e3d5ffd5b505050506040513d601f19601f82011682018060405250810190612c4e9190613e27565b90506121728484612c5f8585613e14565b613a16565b5f620186a082600201541015612c7b57505f919050565b5f6109c490505f6103e8620186a08560020154612c989190613e8b565b612ca29190613eff565b90505f612cb183612710613e8b565b90505f5b8281108015612cc4575060c881105b15612d11575f612710612cd96101f485613ed4565b612ce39190613eff565b9050612cef8186613e14565b9450612cfb8184613e8b565b9250508080612d0990613f98565b915050612cb5565b50612710838660010154612d259190613ed4565b612d2f9190613eff565b95945050505050565b5f60055f846004811115612d4e57612d4e613ec0565b6004811115612d5f57612d5f613ec0565b81526020019081526020015f209050806001015462015180612d819190613e14565b4210612d91575f81554260018201555b60045f846004811115612da657612da6613ec0565b6004811115612db757612db7613ec0565b81526020019081526020015f206001015482825f0154612dd79190613e14565b1115612df55760405162c257a360e21b815260040160405180910390fd5b81815f015f828254612e079190613e14565b9091555050505050565b612e1e8383836001613a68565b610cce57604051635274afe760e01b81526001600160a01b0384166004820152602401612b30565b5f81600101545f1480612e5857508154155b15612e6457505f610f75565b5060020154919050565b5f806103e8612e80620186a086613e8b565b612e8a9190613eff565b90505f620186a08410612eb4576103e8612ea7620186a086613e8b565b612eb19190613eff565b90505b109392505050565b600a54600990612ecf9062015180613e14565b4210612edf575f81554260018201555b8054671bc16d674ec8000090612ef6908490613e14565b1115612f145760405162c257a360e21b815260040160405180910390fd5b81815f015f828254612f269190613e14565b90915550505050565b6040805160028082526060820183525f9260208301908036833701905050905062015180815f81518110612f6557612f65613fc4565b602002602001019063ffffffff16908163ffffffff16815250505f81600181518110612f9357612f93613fc4565b63ffffffff9092166020928302919091019091015260405163883bdbfd60e01b815273ad501a478bf0f81c42c8c80ea08968f5aa4c2f9a9063883bdbfd90612fdf908490600401613fd8565b5f60405180830381865afa92505050801561301b57506040513d5f823e601f3d908101601f1916820160405261301891908101906140e7565b60015b15610f52575f825f8151811061303357613033613fc4565b60200260200101518360018151811061304e5761304e613fc4565b602002602001015161306091906141b3565b90505f61307062015180836141e0565b90505f73ad501a478bf0f81c42c8c80ea08968f5aa4c2f9a6001600160a01b0316633850c7bd6040518163ffffffff1660e01b815260040160e060405180830381865afa1580156130c3573d5f803e3d5ffd5b505050506040513d601f19601f820116820180604052508101906130e7919061422d565b50505050509150505f82826130fc91906142c0565b90505f73ad501a478bf0f81c42c8c80ea08968f5aa4c2f9a6001600160a01b0316630dfe16816040518163ffffffff1660e01b8152600401602060405180830381865afa15801561314f573d5f803e3d5ffd5b505050506040513d601f19601f8201168201806040525081019061317391906142e5565b90506001600160a01b03811673583866fb22a3d67d7c45e1d0f34bcb20bf9c6353145f81156131d5576131a76105dc614300565b90508060020b8460020b12156131d057604051630552b01360e31b815260040160405180910390fd5b6131fe565b506105dc600284900b8112156131fe57604051630552b01360e31b815260040160405180910390fd5b50505050505050505050565b6132148585612b89565b61321e8383613aca565b5f606461322c88604b613ed4565b6132369190613eff565b90505f6132438289613e8b565b90506132666001600160a01b038a165f8051602061438a83398151915284612bdd565b6040516370a0823160e01b81523060048201525f906006602160991b01906370a0823190602401602060405180830381865afa1580156132a8573d5f803e3d5ffd5b505050506040513d601f19601f820116820180604052508101906132cc9190613e27565b6040805160a06020601f8c018190040282018101909252608081018a81529293505f8051602061438a8339815191529263b858183f928291908d908d90819085018382808284375f9201829052509385525050306020840152506040808301899052606090920152516001600160e01b031960e084901b1681526133539190600401613e3e565b6020604051808303815f875af115801561336f573d5f803e3d5ffd5b505050506040513d601f19601f820116820180604052508101906133939190613e27565b506040516370a0823160e01b81523060048201525f9082906006602160991b01906370a0823190602401602060405180830381865afa1580156133d8573d5f803e3d5ffd5b505050506040513d601f19601f820116820180604052508101906133fc9190613e27565b6134069190613e8b565b90505f856134165760025461341a565b61012c5b90506134268282613735565b506134486001600160a01b038d165f8051602061438a83398151915286612bdd565b6003546040516370a0823160e01b81526001600160a01b0390911660048201525f9073833589fcd6edb6e08f4c7c32d4f71b54bda02913906370a0823190602401602060405180830381865afa1580156134a4573d5f803e3d5ffd5b505050506040513d601f19601f820116820180604052508101906134c89190613e27565b6040805160a06020601f8d018190040282018101909252608081018b81529293505f8051602061438a8339815191529263b858183f928291908e908e90819085018382808284375f92018290525093855250506003546001600160a01b031660208401525060408083018b9052606090920152516001600160e01b031960e084901b16815261355a9190600401613e3e565b6020604051808303815f875af1158015613576573d5f803e3d5ffd5b505050506040513d601f19601f8201168201806040525081019061359a9190613e27565b506003546040516370a0823160e01b81526001600160a01b0390911660048201525f90829073833589fcd6edb6e08f4c7c32d4f71b54bda02913906370a0823190602401602060405180830381865afa1580156135f9573d5f803e3d5ffd5b505050506040513d601f19601f8201168201806040525081019061361d9190613e27565b6136279190613e8b565b42600c55604080518f81526020810187905290810182905289151560608201523360808201529091506001600160a01b038f16907fbb867c885c6fe01338a2d4952678ce5ab3b5128b27a2012ef46c921bcf0805539060a00160405180910390a25050505050505050505050505050565b5f80546001600160a01b038381166001600160a01b0319831681178455604051919092169283917f8be0079c531659141344cd1fd0a4f28419497f9722a3daafe3b4186f6b6457e09190a35050565b6014811015613709576040516320db826760e01b815260040160405180910390fd5b813560601c6006602160991b018114610cce576040516320db826760e01b815260040160405180910390fd5b60405163095ea7b360e01b81525f8051602061438a8339815191526004820152602481018390525f906006602160991b019063095ea7b3906044016020604051808303815f875af115801561378c573d5f803e3d5ffd5b505050506040513d601f19601f820116820180604052508101906137b09190613f21565b506040516370a0823160e01b81523060048201525f9073583866fb22a3d67d7c45e1d0f34bcb20bf9c6353906370a0823190602401602060405180830381865afa158015613800573d5f803e3d5ffd5b505050506040513d601f19601f820116820180604052508101906138249190613e27565b90505f73ad501a478bf0f81c42c8c80ea08968f5aa4c2f9a6001600160a01b031663ddca3f436040518163ffffffff1660e01b8152600401602060405180830381865afa158015613877573d5f803e3d5ffd5b505050506040513d601f19601f8201168201806040525081019061389b9190614320565b6040805160e0810182526006602160991b01815273583866fb22a3d67d7c45e1d0f34bcb20bf9c6353602082015262ffffff831681830152306060820152608081018890525f60a0820181905260c082015290516304e45aaf60e01b81529192505f8051602061438a833981519152916304e45aaf9161391d91600401613f3a565b6020604051808303815f875af1158015613939573d5f803e3d5ffd5b505050506040513d601f19601f8201168201806040525081019061395d9190613e27565b506040516370a0823160e01b81523060048201525f90839073583866fb22a3d67d7c45e1d0f34bcb20bf9c6353906370a0823190602401602060405180830381865afa1580156139af573d5f803e3d5ffd5b505050506040513d601f19601f820116820180604052508101906139d39190613e27565b6139dd9190613e8b565b9695505050505050565b5f805160206143aa83398151915254600203611abf57604051633ee5aeb560e01b815260040160405180910390fd5b613a228383835f613b2b565b610cce57613a3383835f6001613b2b565b613a5b57604051635274afe760e01b81526001600160a01b0384166004820152602401612b30565b612e1e8383836001613b2b565b60405163a9059cbb60e01b5f8181526001600160a01b038616600452602485905291602083604481808b5af1925060015f51148316613abe578383151615613ab2573d5f823e3d81fd5b5f873b113d1516831692505b60405250949350505050565b6014811015613aec576040516320db826760e01b815260040160405180910390fd5b818101601319013560601c73833589fcd6edb6e08f4c7c32d4f71b54bda029138114610cce576040516320db826760e01b815260040160405180910390fd5b60405163095ea7b360e01b5f8181526001600160a01b038616600452602485905291602083604481808b5af1925060015f51148316613abe578383151615613ab2573d5f823e3d81fd5b6001600160a01b0381168114610f52575f80fd5b5f8083601f840112613b99575f80fd5b50813567ffffffffffffffff811115613bb0575f80fd5b602083019150836020828501011115613bc7575f80fd5b9250929050565b5f805f60408486031215613be0575f80fd5b8335613beb81613b75565b9250602084013567ffffffffffffffff811115613c06575f80fd5b613c1286828701613b89565b9497909650939450505050565b5f60208284031215613c2f575f80fd5b81356126d381613b75565b5f60208284031215613c4a575f80fd5b5035919050565b803560058110613c5f575f80fd5b919050565b5f60208284031215613c74575f80fd5b6126d382613c51565b5f805f805f8060808789031215613c92575f80fd5b8635613c9d81613b75565b955060208701359450604087013567ffffffffffffffff811115613cbf575f80fd5b613ccb89828a01613b89565b909550935050606087013567ffffffffffffffff811115613cea575f80fd5b613cf689828a01613b89565b979a9699509497509295939492505050565b5f81518084528060208401602086015e5f602082860101526020601f19601f83011685010191505092915050565b8215158152604060208201525f613d506040830184613d08565b949350505050565b5f8060408385031215613d69575f80fd5b50508035926020909101359150565b5f805f8060608587031215613d8b575f80fd5b8435613d9681613b75565b935060208501359250604085013567ffffffffffffffff811115613db8575f80fd5b613dc487828801613b89565b95989497509550505050565b5f805f60608486031215613de2575f80fd5b613deb84613c51565b95602085013595506040909401359392505050565b634e487b7160e01b5f52601160045260245ffd5b80820180821115610f7557610f75613e00565b5f60208284031215613e37575f80fd5b5051919050565b602081525f825160806020840152613e5960a0840182613d08565b905060018060a01b03602085015116604084015260408401516060840152606084015160808401528091505092915050565b81810381811115610f7557610f75613e00565b5f8060408385031215613eaf575f80fd5b505080516020909101519092909150565b634e487b7160e01b5f52602160045260245ffd5b8082028115828204841417610f7557610f75613e00565b634e487b7160e01b5f52601260045260245ffd5b5f82613f0d57613f0d613eeb565b500490565b80518015158114613c5f575f80fd5b5f60208284031215613f31575f80fd5b6126d382613f12565b81516001600160a01b03908116825260208084015182169083015260408084015162ffffff16908301526060808401518216908301526080808401519083015260a0838101519083015260c092830151169181019190915260e00190565b5f60018201613fa957613fa9613e00565b5060010190565b634e487b7160e01b5f52604160045260245ffd5b634e487b7160e01b5f52603260045260245ffd5b602080825282518282018190525f918401906040840190835b8181101561401557835163ffffffff16835260209384019390920191600101613ff1565b509095945050505050565b604051601f8201601f1916810167ffffffffffffffff8111828210171561404957614049613fb0565b604052919050565b5f67ffffffffffffffff82111561406a5761406a613fb0565b5060051b60200190565b5f82601f830112614083575f80fd5b815161409661409182614051565b614020565b8082825260208201915060208360051b8601019250858311156140b7575f80fd5b602085015b838110156140dd5780516140cf81613b75565b8352602092830192016140bc565b5095945050505050565b5f80604083850312156140f8575f80fd5b825167ffffffffffffffff81111561410e575f80fd5b8301601f8101851361411e575f80fd5b805161412c61409182614051565b8082825260208201915060208360051b85010192508783111561414d575f80fd5b6020840193505b8284101561417d5783518060060b811461416c575f80fd5b825260209384019390910190614154565b80955050505050602083015167ffffffffffffffff81111561419d575f80fd5b6141a985828601614074565b9150509250929050565b600682810b9082900b03667fffffffffffff198112667fffffffffffff82131715610f7557610f75613e00565b5f8160060b8360060b806141f6576141f6613eeb565b667fffffffffffff1982145f198214161561421357614213613e00565b90059392505050565b805161ffff81168114613c5f575f80fd5b5f805f805f805f60e0888a031215614243575f80fd5b875161424e81613b75565b8097505060208801518060020b8114614265575f80fd5b95506142736040890161421c565b94506142816060890161421c565b935061428f6080890161421c565b925060a088015160ff811681146142a4575f80fd5b91506142b260c08901613f12565b905092959891949750929550565b600282810b9082900b03627fffff198112627fffff82131715610f7557610f75613e00565b5f602082840312156142f5575f80fd5b81516126d381613b75565b5f8160020b627fffff19810361431857614318613e00565b5f0392915050565b5f60208284031215614330575f80fd5b815162ffffff811681146126d3575f80fdfe4f70657261746f7220726562616c616e6365642073696e63652074696572207265616368656431342d6461792077616974696e6720706572696f64206e6f7420656c61707365640000000000000000000000002626664c2603336e57b271c5c0b26f421741e4819b779b17422d0df92223018b32b4d1fa46e071723d6817e2486d003becc55f00a2646970667358221220e1717506fa505b3de51083bb85293a58d675aa27a4f296f4adddcb87a5c572c564736f6c634300081a0033","linkReferences":{}},"methodIdentifiers":{"BASE_UNLOCK_BPS()":"201cddf3","BPS_DENOMINATOR()":"e1a45218","CIRCUIT_BREAKER_BPS()":"6cdc2430","DEAD_POOL_THRESHOLD()":"bcf97864","OFFICIAL_POOL()":"404f559c","OPERATOR_COOLDOWN()":"a9da64a7","OPERATOR_INACTIVITY_PERIOD()":"c59e093d","PERMISSIONLESS_COOLDOWN()":"179a81b1","PERMISSIONLESS_MAX_PCT()":"4eb400a8","PERMISSIONLESS_PER_ACTION_CAP()":"39d7e4b6","PERMISSIONLESS_PER_DAY_CAP()":"0787bde4","ROI_STEP_BPS()":"0efd0bbb","ROI_THRESHOLD_BPS()":"929388db","SLIPPAGE_BPS()":"77f8bb6d","STAKING()":"97610f30","TWAP_PERIOD()":"7ca25184","UNIVERSAL_ROUTER()":"e8dd7fc3","UNLOCK_STEP_BPS()":"2772d219","USD()":"1bf6c21b","USDC()":"89a30271","V3_ROUTER()":"a1119856","WETH()":"ad5c4648","burn(uint256)":"42966c68","buyTokenWithETH(address,uint256,bytes)":"8339649c","buybackWithUSDC(uint256)":"8ae2be67","buybackWithWETH(uint256)":"eb249753","caps(uint8)":"97545efc","dailyUsage(uint8)":"32e14d64","getCaps(uint8)":"609ebfb5","getRemainingDailyBudget(uint8)":"b37cdaaf","getTokenInfo(address)":"1f69565f","getUnlockedAmount(address)":"420d4a02","isPermissionlessAvailable(address)":"6109700d","lastOperatorAction(uint8)":"cec2c7af","lastOperatorRebalance()":"01395e37","lastPermissionlessAction(address)":"c188d2bf","lastPoolInteraction()":"c9781f50","operator()":"570ca735","operatorSlippageBps()":"bc808d89","owner()":"8da5cb5b","permissionlessDailyUsage()":"ef2aae0b","permissionlessRebalance(address,uint256,bytes,bytes)":"4f9cb45c","rebalance(address,uint256,bytes,bytes)":"6efafb8d","renounceOwnership()":"715018a6","rescueDeadPoolToken(address,bytes)":"06b8bcbe","setOperator(address)":"b3ab15fb","setSlippage(uint256)":"f0fa55a9","stake(uint256,uint256)":"7b0472f0","tokenInfo(address)":"f5dab711","transferOwnership(address)":"f2fde38b","unstake(uint256)":"2e17de78","updateCaps(uint8,uint256,uint256)":"cb4926e2","usdcRecipient()":"e7bcc7bf"},"id":10}